:030000000207668E
:0C076600787FE4F6D8FD7581550207ADE0
:100C6900EFD394007480948040127E7CEED394007C
:0C0C79007480948040031E80F31F80E410
:010C8500224C
:0E0D260000007F257E7B7D5CDDFEDEFCDFFABB
:010D3400229C
:060D500000007F23DFFE1E
:010D5600227A
:040CA300D2A07F0557
:100CA700000000000000000000000000000000AE8F
:060CB700071FEE70EB22A6
:0F0D3500D2A1120CA3C2A17F05120CA7C2A0224B
:0C0D4400C2A1120CA3D2A17F05020CA7D3
:020AFA00AD0746
:100AFC00E4FCECC39408748094805024C2A07F055D
:100B0C00120CA7ED30E704D2A18002C2A17F05121E
:100B1C000CA7D2A0ED25E0FD7F05120CA70C80D20E
:020B2C00C2A065
:010B2E0022A4
:100BB900E4FCECC39408748094805017120CA3EDE4
:100BC90025E0FD30A103430501C2A07F05120CA752
:050BD9000C80DFAF05F8
:010BDE0022F4
:100D1400120CA3A2A1E433FDC2A07F05120CA7AF5D
:010D240005C9
:010D250022AB
:10000300C2A0EF24FF92A17F05120CA7120CA3C27A
:08001300A0D2A17F05020CA799
:100CEA00C0F9A4B0999282F880908883C6A1868EB2
:050CFA00C78CC800FFDB
:100A08008F0C8D0D8B0E7580FF7F07120B2F53A057
:100A18001FAF0CA8077401088002C333D8FCF58007
:100A28007F06120B2F53A01FE50D900CEA93F5805B
:100A3800E50E600353807F7F07120B2F53A01F2200
:1007F200E4FFC2C4D2C2D2B5D2B420B0027F072075
:10080200B1027F0620B2027F0520B3027F04D2C468
:10081200C2C2D2B5D2B420B0027F0B20B1027F0A8D
:1008220020B2027F0920B3027F0820B20520B30262
:100832007F59D2C4D2C2C2B5D2B420B0027F0F2037
:10084200B1027F0E20B2027F0D20B3027F0CD2C410
:10085200D2C2D2B5C2B420B0027F1220B1027F123E
:0A08620020B2027F1120B3027F10C4
:01086C002269
:100CFF00538EBF53890F758B18758DFCC28FD28E93
:050D0F00D2ABD2AF22BF
:100B2F00EF24FB601314601914601F24037023E576
:100B3F00A0541F4480F5A022E5A0541F44A0F5A0A7
:100B4F0022E5A0541F44C0F5A022E5A0541F44E0A5
:030B5F00F5A022DC
:100CD400AD071FED600FE4FEEEC3940C74809480A6
:050CE40050EE0E80F34C
:010CE90022E8
:020B9200AB07AF
:100B9400E4FAEAC39408748094805014C294EB136A
:100BA40092947F05120CD4D294EBC313FB0A80E217
:050BB4007F05020CD4D6
:100BDF00E4FBEBC39408748094805016C294ECC36A
:100BEF0013FCD2943094034304807F05120CD40B72
:040BFF0080E0AF04DF
:010C030022CE
:100C0400C202D2947F0C120CD4C2947F50120CD422
:100C1400D2947F0A120CD4A29492027F05120CD4AF
:020C2400A2022A
:010C260022AB
:100A8600120C047FCC120B927F44120B923001039E
:100A9600120D26120C047FCC120B927FBE120B9203
:100AA600120BDFAA07120BDFEFAD02FCEC120242BB
:0A0AB600E4FBFA7980784102012781
:100C4A00E4F509F509C3E509940874809480500E07
:0E0C5A00D290120D50C290120D50050980E785
:010C68002269
:100A4800E4F5E9F5F9F5D8C2AF120C4AD2AFD2DE17
:100A580030910330DFFAC2DE20DF1CAFF9EFFEADC4
:100A6800E9EDFFAC06E41202427B967A43798B7873
:0D0A78003C12001E02027BC2DF7E037FE7FE
:010A8500224E
:06095200010F000110FF7F
:100AC00030030FA8077401088002C333D8FC420F1B
:100AD000800EA8077401088002C333D8FCF4520FBB
:100AE000E50F65106013E50FF4F580E5A0541F4491
:090AF00080F5A053A01F850F1032
:010AF90022DA
:020B62008F0AF8
:100B6400120D357F90120AFA120D14AF0A120AFA06
:100B7400120D14120D357F91120AFA120D14120B74
:0D0B8400B98F0B7F01120003120D44AF0B5F
:010B91002241
:100C86008F13120D357F90120AFA120D147F40123F
:0D0C96000AFA120D14AF13120AFA020D141F
:060958000111000112FF75
:100C270030010543111080035311EFE51165126080
:100C370011851180E5A0541F44A0F5A053A01F857E
:030C470011122265
:10095E00013B00024A0000014700014E01C105049F
:10096E00520000000002480000024F000002290061
:10097E0000014601014D0101511E014C14024400BB
:10098E0000082B0000000000000000083C141414A6
:10099E0014141414140833000000000000000002A8
:0909AE0025000002270000C184AD
:100CBD007580FF7F04120B2F53A01FE4F5807F0575
:070CCD00120B2F53A01F22A0
:1009B800D200120CFF120CBDA2009201120A868FFF
:1009C800558E548D538C52C200AE4AAF4B7C037D7A
:1009D800E81202FCED4C701A120A488E298F2AC3BD
:1009E800E52A9550F549E529954FF54885294F851C
:1009F8002A501208E312039512067912055880C985
:10039500E54714605214700302042A147003020422
:1003A5004924F97003020534240A600302055775D0
:1003B5003C0CAF55AE54AD53AC5212027BAB07AA01
:1003C500067C007D0A1203518F3D7C007D0AAF0338
:1003D500AE021203518D3E753F14754014754114DC
:1003E500754212854E4322753C1085463D753E1477
:1003F500753F14754014AE29AF2A7C007D64120246
:10040500FC8F41AE29AF2A7C007D0A1202FC7C00DC
:100415007D0A1202FC8D42AE29AF2A7C007D0A12AC
:1004250002FC8D4322753C11753D0C753E14753FDC
:1004350014754014754114E54C75F00A84F542E5D0
:100445004C020550753C12753D0C753E14753F14F4
:10045500AE44AF457C037DE81202FCEF4E70047F8D
:100465001480008F40EF64146023AE44AF457C03D5
:100475007DE81202FC7E007F64CFCDCFCECCCE12BC
:1004850002FCEF4E7003FF80008F418022AE44AF27
:10049500457C037DE81202FC7E007F64CFCDCFCE84
:1004A500CCCE1202FCEF4E70047F1480008F41E524
:1004B5004164146023AE44AF457C007D641202FCA8
:1004C5007E007F0ACFCDCFCECCCE1202FCEF4E7090
:1004D50003FF80008F428022AE44AF457C007D64DF
:1004E5001202FC7E007F0ACFCDCFCECCCE1202FC0D
:1004F500EF4E70047F1480008F42E542641460174C
:10050500AE44AF457C007D0A1202FCED4C7003FF42
:100515008002AF058F4322AE44AF457C007D0A12B1
:1005250002FCED4C70047F148002AF058F432275E9
:100535003C11753D10753E14753F14754014754199
:1005450014E55175F00A84F542E55175F00A848584
:03055500F043224E
:1008E300AE4AAF4B7C007DC81202FCED4C705F7FBB
:1008F30001120B62C374FF9FF509C201120A868FAE
:10090300558E548D538C52AF097E00C3EF94997466
:100913008094804004754E0122C3EF9466EE648098
:100923009480400EEF9499EE648094805004754E49
:100933000222C3EF9419EE64809480400EEF946614
:0E094300EE648094805004754E0322754E04BD
:010951002283
:10055800AE4AAF4B7C007D0A1202FCED4C600302F0
:1005680006781207F28F21E5246521FF5521F5222F
:10057800E521F45FF523852124AF227E00EF640492
:100588007015E547640A7005754703800A0547E555
:100598004764047002F547EF64054E7015AF47FED7
:1005A800EF6402700475470A22EF640A4E700375FF
:1005B8004702E52264087031AF47FEEF640270120B
:1005C800E54C645070047D508004E54C04FD8D4C6E
:1005D8008017EF640A4E7011E551645070047F5023
:1005E8008005E5512405FF8F51AF227E00EF640995
:1005F8007031AD47FCED64027012E54C6414700470
:100608007B148004E54C14FB8B4C8017ED640A4C7A
:100618007011E551641470047D148005E55124FBC4
:10062800FD8D51EF64594E7047E54764037041856D
:100638004A25854B26C3E5269528FFE5259527FEFF
:10064800C3EF94D0EE9407501CC374B89528FF7478
:100658000B9527FEE5262FFFE5253EFEC3EF94D038
:10066800EE94074005E4F544F545852527852628B9
:01067800225F
:10067900E551FB7A00C3E52A9BE5299A500BE4F57D
:100689002BF52CF52DF52E8044E54E24FE60121431
:10069900601A14602524037034752B01E4F52C804D
:1006A90007752B01752C01E4F52D800A752B017551
:1006B9002C01752D01E4F52E800D752B01752C018A
:1006C900752D01752E01E4F52FF530F531C3E54996
:1006D9009405E5489400500BE4F53285464D75467E
:1006E900018041C3E5499405E54894004015E54971
:1006F900940AE5489400500B75320185464D7546BC
:10070900028021AE4AAF4B7C007D641202FCED4CA5
:100719007012E53270047F0180027F008F328546B6
:100729004D754603C3E52A9BE5299A5028AC4CE44C
:10073900120247AB55AA54A953A8521201C4601515
:100749004013D201120C273004120545E545700209
:0C0759000544C20422C201120C27D20485
:010765002271
:03001B0002086D6B
:10086D00C0E0C0F0C083C082C0D075D000C000C051
:10087D0001C002C003C004C005C006C007054BE59A
:10088D004B7002054AFFAE4A7C137D881202FC8C28
:10089D004A8D4B053BE53B5407F53B243CF8E6FD03
:1008AD007433253BF8E6FBAF3B120A08742B253B4E
:1008BD00F8E624FF9203AF3B120AC0D007D006D052
:1008CD0005D004D003D002D001D000D0D0D082D03A
:0608DD0083D0F0D0E032F0
:10001E00EC4D6011E8497017ED33EC3304600DE4DC
:10002E00FCFFFEFD22E933E8330470F80202E7120A
:10003E0002B258046009E4CC24815006285009020B
:10004E0002F12840030202EEC0E0EB4A7044B98090
:10005E0006D0E0FB0202DDEF4E701CBD8008EBFF08
:10006E00EAFEE9FD80EBE98DF0A4FEE5F002010762
:10007E00E9CDF9EAFEEBFFEF89F0A4FCE5F0CE89BD
:10008E00F0A42EFFE435F0CD89F0A42DFEE435F07A
:10009E008067EF4E7005BD80D780C3EF8BF0A4ACA8
:1000AE00F0EE8BF0A42CFCE435F0F8EF8AF0A42CE3
:1000BE00E5F038FCE433CB8DF0A42CFCE5F03BF8F6
:1000CE00EE8AF0A42CFCE5F038F8E433CF89F0A4E6
:1000DE002CFCE5F038CF3400CE89F0A42FFFE5F0EC
:1000EE003EFEE433C98DF0A42EFEE5F039CD8AF044
:1000FE00A42FFFE5F03EFEE43DFD33D0E0FB5007BC
:10010E000BBB000F0202F1EC2CFCEF33FFEE33FEC3
:06011E00ED33FD0202C9F1
:100124000202F1EC5D046005E8590470030202E781
:100134001202B2580460F6EC4860F2EC7004FDFE62
:10014400FF22C860DB2481C85009C39860025006AE
:100154000202EE9850CAF582E9294B4A7005AB8237
:100164000202DD75F0007C1A7880C3EF9BEE9AEDF5
:1001740099400DC3EF9BFFEE9AFEED99FDE842F026
:10018400DC23ACF0D0E0FFD0E0FED0E0FDAB822079
:10019400E7101BEB60BAEC2CFCEF33FFEE33FEED03
:1001A40033FD0202C9E803F830E705C0F075F0003A
:1001B400EF2FFFEE33FEED33FD40B830E7C280AAE7
:1001C40074F8CC6480CCC86480C8F58204604FC3E2
:1001D400EB9FF5F0EA9E42F0E99D42F0E89C45F081
:1001E400603C501DE5825FFFE582D313CB5BCBF40B
:1001F4002B5582FB50280ABA002409B90020088034
:100204001DE5825BFBE582D313CF5FCFF4C3132FCD
:100214005582FF50090EBE00050DBD00010CC3EB55
:100224009FF5F0EA9E42F0E99D42F0E89C45F060BB
:0902340007CC4820E701B3EC22DD
:10023D0075F020800E75F010800575F0087D007E3C
:10024D00007F003392D530D503120387EC33401075
:10025D00EF33FFEE33FEED33FDEC33FCD5F0ED2245
:0E026D00E5F0247EA2D513CC92E7CDCEFF2281
:10027B00EDD2E7CD33EC3392D524814006E4FFFE7B
:10028B00FDFC22FCE4CFCECDCC24E0501174FF80DA
:10029B00EDC3CC13CCCD13CDCE13CECF13CF047077
:0702AB00F030D5DE020387ED
:1002B200E9D2E7C933E833F892D5EDD2E7CD33EC92
:0702C20033FC5002B2D5220B
:1002C900EC30E7100FBF000C0EBE00080DBD000496
:1002D9000BEB6014A2D5EB13FCED92E7FD2274FF42
:1002E900FCFDFEFF22E480F8A2D574FF13FC7D809B
:0302F900E480EFAF
:100772000209B8E493A3F8E493A34003F68001F2DC
:1007820008DFF48029E493A3F85407240CC8C33388
:10079200C4540F4420C8834004F456800146F6DF57
:1007A200E4800B0102040810204080900952E47E8C
:1007B200019360BCA3FF543F30E509541FFEE4934C
:1007C200A360010ECF54C025E060A840B8E493A313
:1007D200FAE493A3F8E493A3C8C582C8CAC583CA3E
:1007E200F0A3C8C582C8CAC583CADFE9DEE780BEF6
:0109B700003F
:1002FC00BC000BBE0029EF8DF084FFADF022E4CCE6
:10030C00F875F008EF2FFFEE33FEEC33FCEE9DECAE
:10031C00984005FCEE9DFE0FD5F0E9E4CEFD22EDF4
:10032C00F8F5F0EE8420D21CFEADF075F008EF2F3E
:10033C00FFED33FD4007985006D5F0F222C398FD2F
:05034C000FD5F0EA22CC
:10035100C2D5EC30E709B2D5E4C39DFDE49CFCEEC7
:1003610030E715B2D5E4C39FFFE49EFE1202FCC341
:10037100E49DFDE49CFC80031202FC30D507C3E43C
:060381009FFFE49EFE2236
:0E038700C3E49FFFE49EFEE49DFDE49CFC2287
:00000001FF
