:030000000207D61E
:0C07D600787FE4F6D8FD75815802081DFC
:100CAE00EFD394007480948040127E7CEED3940037
:0C0CBE007480948040031E80F31F80E4CB
:010CCA002207
:0E0D6B0000007F257E7B7D5CDDFEDEFCDFFA76
:010D79002257
:060D950000007F23DFFED9
:010D9B002235
:040CE800D2A07F0512
:100CEC00000000000000000000000000000000AE4A
:060CFC00071FEE70EB2261
:0F0D7A00D2A1120CE8C2A17F05120CECC2A0227C
:0C0D8900C2A1120CE8D2A17F05020CEC04
:020B1500AD072A
:100B1700E4FCECC39408748094805024C2A07F0541
:100B2700120CECED30E704D2A18002C2A17F0512BE
:100B37000CECD2A0ED25E0FD7F05120CEC0C80D269
:020B4700C2A04A
:010B49002289
:100BFE00E4FCECC39408748094805017120CE8ED5A
:100C0E0025E0FD30A103430501C2A07F05120CECC7
:050C1E000C80DFAF05B2
:010C230022AE
:100D5900120CE8A2A1E433FDC2A07F05120CECAF8E
:010D69000584
:010D6A002266
:10000300C2A0EF24FF92A17F05120CEC120CE8C2F0
:08001300A0D2A17F05020CEC54
:100D2F00C0F9A4B0999282F880908883C6A1868E6C
:050D3F00C78CC800FF95
:100A23008F0B8D0C8B0D7580FF7F07120B4A53A024
:100A33001FAF0BA8077401088002C333D8FCF580ED
:100A43007F06120B4A53A01FE50C900D2F93F580E0
:100A5300E50D600353807F7F07120B4A53A01F22CB
:10086200E4FFC2C4D2C2D2B5D2B420B0027F072004
:10087200B1027F0620B2027F0520B3027F04D2C4F8
:10088200C2C2D2B5D2B420B0027F0B20B1027F0A1D
:1008920020B2027F0920B3027F0820B20520B302F2
:1008A2007F59D2C4D2C2C2B5D2B420B0027F0F20C7
:1008B200B1027F0E20B2027F0D20B3027F0CD2C4A0
:1008C200D2C2D2B5C2B420B0027F1220B1027F12CE
:0A08D20020B2027F1120B3027F1054
:0108DC0022F9
:100D4400538EBF53890F758B18758DFCC28FD28E4D
:050D5400D2ABD2AF227A
:100B4A00EF24FB601314601914601F24037023E55B
:100B5A00A0541F4480F5A022E5A0541F44A0F5A08C
:100B6A0022E5A0541F44C0F5A022E5A0541F44E08A
:030B7A00F5A022C1
:100D1900AD071FED600FE4FEEEC3940C7480948060
:050D290050EE0E80F306
:010D2E0022A2
:020BD700AB076A
:100BD900E4FAEAC39408748094805014C294EB1325
:100BE90092947F05120D19D294EBC313FB0A80E28C
:050BF9007F05020D194B
:100C2400E4FBEBC39408748094805016C294ECC324
:100C340013FCD2943094034304807F05120D190BE6
:040C440080E0AF0499
:010C48002289
:100C4900C208D2947F0C120D19C2947F50120D194B
:100C5900D2947F0A120D19A29492087F05120D19D8
:020C6900A208DF
:010C6B002266
:100AA100120C497FCC120BD77F44120BD7300703AE
:100AB100120D6B120C497FCC120BD77FBE120BD7D4
:100AC100120C24AA07120C24EFAD02FCEC12024214
:0A0AD100E4FBFA7980784102012766
:100C8F00E4F508F508C3E508940874809480500EC5
:0E0C9F00D290120D95C290120D95050880E7B7
:010CAD002224
:100A6300E4F5E9F5F9F5D8C2AF120C8FD2AFD2DEB7
:100A730030910330DFFAC2DE20DF1CAFF9EFFEADA9
:100A8300E9EDFFAC06E41202427B967A43798B7858
:0D0A93003C12001E02027BC2DF7E037FE7E3
:010AA0002233
:0608DD00010E00010FFFF7
:100ADB0030090FA8077401088002C333D8FC420EFB
:100AEB00800EA8077401088002C333D8FCF4520EA1
:100AFB00E50E650F6013E50EF4F580E5A0541F4479
:090B0B0080F5A053A01F850E0F18
:010B140022BE
:020B7D008F09DE
:100B7F00120D7A7F90120B15120D59AF09120B152A
:100B8F00120D59120D7A7F91120B15120D59120B6E
:0D0B9F00FE8F0A7F01120003120D89AF0ABC
:010BAC002226
:100CCB008F12120D7A7F90120B15120D597F401255
:0D0CDB000B15120D59AF12120B15020D5919
:0608E3000110000111FFED
:100C6C0030070543101080035310EFE51065116039
:100C7C0011851080E5A0541F44A0F5A053A01F853A
:030C8C0010112222
:1008E900013800024B0000014400015101C101041B
:1008F90055000000000245000002520000022600D7
:100909000001541E014D1402410000C105024700B7
:1009190000C102024E0000C10402490000C10301E6
:1009290043010150000828000000000000000008F1
:10093900391414141414141414083000000000009D
:05094900000000C18068
:100D02007580FF7F04120B4A53A01FE4F5807F0514
:070D1200120B4A53A01F223F
:100BAD00D206120D44120D02A2069207120AA18F4F
:100BBD00588E578D568C55C2061209BE12094F120A
:0A0BCD00039512072312055880EF6C
:1009BE00300561E54C454B705B120A638E268F271E
:1009CE00C3E5279554E526940050028001C3920397
:1009DE00200441C3E5279553F546E5269552F54586
:1009EE00852652852753C3E5469405E54594005068
:1009FE00057543018013C3E546940AE545940050FE
:100A0E00057543028003754303E55065436002D2CA
:050A1E00048543502295
:10039500E54414605214700302042A147003020425
:1003A5004924F97003020534240A600302055775D0
:1003B500390CAF58AE57AD56AC5512027BAB07AAF8
:1003C500067C007D0A1203518F3A7C007D0AAF033B
:1003D500AE021203518D3B753C14753D14753E14E8
:1003E500753F128551402275391085433A753B1486
:1003F500753C14753D14AE26AF277C007D64120252
:10040500FC8F3EAE26AF277C007D0A1202FC7C00E5
:100415007D0A1202FC8D3FAE26AF277C007D0A12B5
:1004250002FC8D4022753911753A0C753B14753CEB
:1004350014753D14753E14E54D75F00A84F53FE5D8
:100445004D020550753912753A0C753B14753C14FF
:10045500AE41AF427C037DE81202FCEF4E70047F93
:100465001480008F3DEF64146023AE41AF427C03DE
:100475007DE81202FC7E007F64CFCDCFCECCCE12BC
:1004850002FCEF4E7003FF80008F3E8022AE41AF2D
:10049500427C037DE81202FC7E007F64CFCDCFCE87
:1004A500CCCE1202FCEF4E70047F1480008F3EE527
:1004B5003E64146023AE41AF427C007D641202FCB1
:1004C5007E007F0ACFCDCFCECCCE1202FCEF4E7090
:1004D50003FF80008F3F8022AE41AF427C007D64E8
:1004E5001202FC7E007F0ACFCDCFCECCCE1202FC0D
:1004F500EF4E70047F1480008F3FE53F6414601752
:10050500AE41AF427C007D0A1202FCED4C7003FF48
:100515008002AF058F4022AE41AF427C007D0A12BA
:1005250002FCED4C70047F148002AF058F402275EC
:100535003911753A10753B14753C14753D14753EAB
:1005450014E55475F00A84F53FE55475F00A848581
:03055500F0402251
:10094F00AE4BAF4C7C007DC81202FCED4C705F7F4C
:10095F0001120B7DC374FF9FF508C207120AA18F06
:10096F00588E578D568C55AF087E00C3EF949974EF
:10097F00809480400475510122C3EF9466EE648029
:10098F009480400EEF9499EE6480948050047551DA
:10099F000222C3EF9419EE64809480400EEF9466A8
:0E09AF00EE648094805004755103227551044B
:0109BD002217
:10055800AE4BAF4C7C007D321202FCED4C600302C6
:10056800065A1208628F22E5256522FF5522F523D7
:10057800E522F45FF524852225AF237E00EF64048D
:100588007015E544640A7005754403800A0544E55E
:100598004464047002F544EF64054E7015AF44FEE0
:1005A800EF6402700475440A22EF640A4E70037502
:1005B8004402E52364087031AF44FEEF6402701210
:1005C800E54D645070047D508004E54D04FD8D4D6B
:1005D8008017EF640A4E7011E554645070047F5020
:1005E8008005E5542405FF8F54AF237E00EF64098E
:1005F8007031AD44FCED64027012E54D6414700472
:100608007B148004E54D14FB8B4D8017ED640A4C78
:100618007011E554641470047D148005E55424FBBE
:10062800FD8D54EF64594E7008E54464037002D29E
:1006380002E54FB4D110E54EB4070BE4F541F5429D
:10064800C202F54EF54FE52464597006C202F54E14
:02065800F54F5C
:01065A00227D
:10072300300341E55124FE601214601C1460272439
:1007330003703A752801E4F52980077528017529A6
:1007430001E4F52AF52B8025752801752901752A01
:1007530001E4F52B8017752801752901752A0175A8
:100763002B018009E4F52BF52AF529F528AF437E03
:1007730000EF64017004F52F8026EF64024E7005CC
:10078300752F01801BAE4BAF4C7C007D641202FCC5
:10079300ED4C700CE52F70047F0180027F008F2FDA
:1007A300300328AC4DE4120247AB58AA57A956A808
:1007B300551201C460154013D207120C6C3000129D
:1007C3000542E54270020541C20022C207120C6CC9
:0207D300D20052
:0107D5002201
:03001B0002065B7F
:10065B00C0E0C0F0C083C082C0D075D000C000C065
:10066B0001C002C003C004C005C006C007054CE5AD
:10067B004C7002054BFFAE4B7C037DE81202FC8CE9
:10068B004B8D4C300217054FE54F7002054EC3944E
:10069B00D0E54E94074006754E07754FD1200519CE
:1006AB000548E54870020547FFAE47BE070BBFD0B4
:1006BB0008754700754800D205300419054AE54A0C
:1006CB0070020549FFAE49BE0B0BBFB80875490058
:1006DB00754A00C2040538E5385407F5382439F853
:1006EB00E6FD74302538F8E6FBAF38120A23742880
:1006FB002538F8E624FF9209AF38120ADBD007D071
:10070B0006D005D004D003D002D001D000D0D0D079
:08071B0082D083D0F0D0E0325F
:10001E00EC4D6011E8497017ED33EC3304600DE4DC
:10002E00FCFFFEFD22E933E8330470F80202E7120A
:10003E0002B258046009E4CC24815006285009020B
:10004E0002F12840030202EEC0E0EB4A7044B98090
:10005E0006D0E0FB0202DDEF4E701CBD8008EBFF08
:10006E00EAFEE9FD80EBE98DF0A4FEE5F002010762
:10007E00E9CDF9EAFEEBFFEF89F0A4FCE5F0CE89BD
:10008E00F0A42EFFE435F0CD89F0A42DFEE435F07A
:10009E008067EF4E7005BD80D780C3EF8BF0A4ACA8
:1000AE00F0EE8BF0A42CFCE435F0F8EF8AF0A42CE3
:1000BE00E5F038FCE433CB8DF0A42CFCE5F03BF8F6
:1000CE00EE8AF0A42CFCE5F038F8E433CF89F0A4E6
:1000DE002CFCE5F038CF3400CE89F0A42FFFE5F0EC
:1000EE003EFEE433C98DF0A42EFEE5F039CD8AF044
:1000FE00A42FFFE5F03EFEE43DFD33D0E0FB5007BC
:10010E000BBB000F0202F1EC2CFCEF33FFEE33FEC3
:06011E00ED33FD0202C9F1
:100124000202F1EC5D046005E8590470030202E781
:100134001202B2580460F6EC4860F2EC7004FDFE62
:10014400FF22C860DB2481C85009C39860025006AE
:100154000202EE9850CAF582E9294B4A7005AB8237
:100164000202DD75F0007C1A7880C3EF9BEE9AEDF5
:1001740099400DC3EF9BFFEE9AFEED99FDE842F026
:10018400DC23ACF0D0E0FFD0E0FED0E0FDAB822079
:10019400E7101BEB60BAEC2CFCEF33FFEE33FEED03
:1001A40033FD0202C9E803F830E705C0F075F0003A
:1001B400EF2FFFEE33FEED33FD40B830E7C280AAE7
:1001C40074F8CC6480CCC86480C8F58204604FC3E2
:1001D400EB9FF5F0EA9E42F0E99D42F0E89C45F081
:1001E400603C501DE5825FFFE582D313CB5BCBF40B
:1001F4002B5582FB50280ABA002409B90020088034
:100204001DE5825BFBE582D313CF5FCFF4C3132FCD
:100214005582FF50090EBE00050DBD00010CC3EB55
:100224009FF5F0EA9E42F0E99D42F0E89C45F060BB
:0902340007CC4820E701B3EC22DD
:10023D0075F020800E75F010800575F0087D007E3C
:10024D00007F003392D530D503120387EC33401075
:10025D00EF33FFEE33FEED33FDEC33FCD5F0ED2245
:0E026D00E5F0247EA2D513CC92E7CDCEFF2281
:10027B00EDD2E7CD33EC3392D524814006E4FFFE7B
:10028B00FDFC22FCE4CFCECDCC24E0501174FF80DA
:10029B00EDC3CC13CCCD13CDCE13CECF13CF047077
:0702AB00F030D5DE020387ED
:1002B200E9D2E7C933E833F892D5EDD2E7CD33EC92
:0702C20033FC5002B2D5220B
:1002C900EC30E7100FBF000C0EBE00080DBD000496
:1002D9000BEB6014A2D5EB13FCED92E7FD2274FF42
:1002E900FCFDFEFF22E480F8A2D574FF13FC7D809B
:0302F900E480EFAF
:1007E200020BADE493A3F8E493A34003F68001F275
:1007F20008DFF48029E493A3F85407240CC8C33318
:10080200C4540F4420C8834004F456800146F6DFE6
:10081200E4800B01020408102040809008DDE47E91
:10082200019360BCA3FF543F30E509541FFEE493DB
:10083200A360010ECF54C025E060A840B8E493A3A2
:10084200FAE493A3F8E493A3C8C582C8CAC583CACD
:10085200F0A3C8C582C8CAC583CADFE9DEE780BE85
:01094E0000A8
:1002FC00BC000BBE0029EF8DF084FFADF022E4CCE6
:10030C00F875F008EF2FFFEE33FEEC33FCEE9DECAE
:10031C00984005FCEE9DFE0FD5F0E9E4CEFD22EDF4
:10032C00F8F5F0EE8420D21CFEADF075F008EF2F3E
:10033C00FFED33FD4007985006D5F0F222C398FD2F
:05034C000FD5F0EA22CC
:10035100C2D5EC30E709B2D5E4C39DFDE49CFCEEC7
:1003610030E715B2D5E4C39FFFE49EFE1202FCC341
:10037100E49DFDE49CFC80031202FC30D507C3E43C
:060381009FFFE49EFE2236
:0E038700C3E49FFFE49EFEE49DFDE49CFC2287
:00000001FF
