:030000000206D81D
:0C06D800787FE4F6D8FD75814F02071F03
:100BBF00EFD394007480948040127E7CEED3940027
:0C0BCF007480948040031E80F31F80E4BB
:010BDB0022F7
:0E0C7C0000007F257E7B7D5CDDFEDEFCDFFA66
:010C8A002247
:060CA60000007F23DFFEC9
:010CAC002225
:040BF900D2A07F0502
:100BFD00000000000000000000000000000000AE3A
:060C0D00071FEE70EB2250
:0F0C8B00D2A1120BF9C2A17F05120BFDC2A0224C
:0C0C9A00C2A1120BF9D2A17F05020BFDD4
:020A5000AD07F0
:100A5200E4FCECC39408748094805024C2A07F0507
:100A6200120BFDED30E704D2A18002C2A17F051274
:100A72000BFDD2A0ED25E0FD7F05120BFD0C80D20F
:020A8200C2A010
:010A8400224F
:100B0F00E4FCECC39408748094805017120BF9ED39
:100B1F0025E0FD30A103430501C2A07F05120BFDA7
:050B2F000C80DFAF05A2
:010B3400229E
:100C6A00120BF9A2A1E433FDC2A07F05120BFDAF5E
:010C7A000574
:010C7B002256
:10000300C2A0EF24FF92A17F05120BFD120BF9C2D0
:08001300A0D2A17F05020BFD44
:100C4000C0F9A4B0999282F880908883C6A1868E5C
:050C5000C78CC800FF85
:10095E008F0D8D0E8B0F7580FF7F07120A8553A0AA
:10096E001FAF0DA8077401088002C333D8FCF580B1
:10097E007F06120A8553A01FE50E900C4093F5805A
:10098E00E50F600353807F7F07120A8553A01F2255
:1007DA00E4FFC2C4D2C2D2B5D2B420B0027F07208D
:1007EA00B1027F0620B2027F0520B3027F04D2C481
:1007FA00C2C2D2B5D2B420B0027F0B20B1027F0AA6
:10080A0020B2027F0920B3027F08D2C4D2C2C2B585
:10081A00D2B420B0027F0F20B1027F0E20B2027F35
:10082A000D20B3027F0CD2C4D2C2D2B5C2B420B05A
:10083A00027F1220B1027F1220B2027F1120B3027E
:02084A007F101D
:01084C002289
:100C5500538EBF53890F758B18758DFCC28FD28E3D
:050C6500D2ABD2AF226A
:100A8500EF24FB601314601914601F24037023E521
:100A9500A0541F4480F5A022E5A0541F44A0F5A052
:100AA50022E5A0541F44C0F5A022E5A0541F44E050
:030AB500F5A02287
:100C2A00AD071FED600FE4FEEEC3940C7480948050
:050C3A0050EE0E80F3F6
:010C3F002292
:020AE800AB075A
:100AEA00E4FAEAC39408748094805014C294EB1315
:100AFA0092947F05120C2AD294EBC313FB0A80E26C
:050B0A007F05020C2A2A
:100B3500E4FBEBC39408748094805016C294ECC314
:100B450013FCD2943094034304807F05120C2A0BC6
:040B550080E0AF0489
:010B59002279
:100B5A00C202D2947F0C120C2AC2947F50120C2A21
:100B6A00D2947F0A120C2AA29492027F05120C2AAE
:020B7A00A202D5
:010B7C002256
:1009DC00120B5A7FCC120AE87F44120AE83001034A
:1009EC00120C7C120B5A7FCC120AE87FBE120AE85A
:1009FC00120B35AA07120B35EFAD02FCEC120242BA
:0A0A0C00E4FBFA798078410201272B
:100BA000E4F509F509C3E509940874809480500EB2
:0E0BB000D290120CA6C290120CA6050980E786
:010BBE002214
:10099E00E4F5E9F5F9F5D8C2AF120BA0D2AFD2DE6D
:1009AE0030910330DFFAC2DE20DF1CAFF9EFFEAD6F
:1009BE00E9EDFFAC06E41202427B967A43798B781E
:0D09CE003C12001E02027BC2DF7E037FE7A9
:0109DB0022F9
:0608B8000110000111FF18
:100A160030030FA8077401088002C333D8FC4210C4
:100A2600800EA8077401088002C333D8FCF4521064
:100A3600E51065116013E510F4F580E5A0541F4438
:090A460080F5A053A01F851011DA
:010A4F002284
:020AB8008F0AA3
:100ABA00120C8B7F90120A50120C6AAF0A120A505B
:100ACA00120C6A120C8B7F91120A50120C6A120BCA
:0D0ADA000F8F0B7F01120003120C9AAF0B5F
:010AE70022EC
:100BDC008F14120C8B7F90120A50120C6A7F4012E9
:0D0BEC000A50120C6AAF14120A50020C6A73
:0608BE000112000113FF0E
:100B7D0030010543121080035312EFE51265136027
:100B8D0011851280E5A0541F44A0F5A053A01F8528
:030B9D001213220E
:1008C40001370002450000014200014801C104044F
:1008D4004C00000000024300000249000002250011
:1008E40000014B1E014714024000000827000000CD
:1008F400000000000008381414141414141414080C
:090904002F0000000000000000BB
:100C13007580FF7F04120A8553A01FE4F5807F05CA
:070C2300120A8553A01F22F5
:10090E00D200120C55120C13A20092011209DC8FA8
:10091E004F8E4E8D4D8C4CC200AE45AF467C037D46
:10092E00E81202FCED4C701A12099E8E258F26C31A
:10093E00E526954AF544E5259549F54385254985EE
:10094E00264A12084D12039512053412060880C964
:10039500E54214604314607814700302042E24F9B6
:1003A5007003020516240A600302053375380CAF85
:1003B5004FAE4EAD4DAC4C12027BAB07AA067C008E
:1003C5007D0A1203518F397C007D0AAF03AE0212FC
:1003D50003518D3A753E1222753810753901753AFB
:1003E50014AE25AF267C007D641202FC8F3DAE2540
:1003F500AF267C007D0A1202FC7C007D0A1202FCFD
:100405008D3EAE25AF267C007D0A1202FC8D3F2273
:1004150075381175390C753A14753D14E54775F045
:100425000A84F53EE54702052C75381275390C75B9
:100435003A14AE40AF417C037DE81202FCEF4E70EA
:10044500047F1480008F3CEF64146023AE40AF41FD
:100455007C037DE81202FC7E007F64CFCDCFCECC3D
:10046500CE1202FCEF4E7003FF80008F3D8022AE5E
:1004750040AF417C037DE81202FC7E007F64CFCD56
:10048500CFCECCCE1202FCEF4E70047F1480008FCD
:100495003DE53D64146023AE40AF417C007D6412B0
:1004A50002FC7E007F0ACFCDCFCECCCE1202FCEF70
:1004B5004E7003FF80008F3E8022AE40AF417C002E
:1004C5007D641202FC7E007F0ACFCDCFCECCCE124A
:1004D50002FCEF4E70047F1480008F3EE53E6414ED
:1004E5006017AE40AF417C007D0A1202FCED4C70F6
:1004F50003FF8002AF058F3F22AE40AF417C007DF8
:100505000A1202FCED4C70047F148002AF058F3F88
:1005150022753811753910753A14753D14E54B750A
:0F052500F00A84F53EE54B75F00A8485F03F221D
:10084D00AE45AF467C007DC81202FCED4C705B7F5F
:10085D0001120AB88F09C2011209DC8F4F8E4E8D1D
:10086D004D8C4CAF097E00C3EF94997480948040F9
:10087D000475480122C3EF9466EE64809480400EA7
:10088D00EF9499EE64809480500475480222C3EF72
:10089D009419EE64809480400EEF9466EE6480941B
:0A08AD0080500475480322754804CA
:0108B700221E
:10060800AE45AF467C007D0A1202FCED4C60030249
:1006180006D71207DA8F21E5246521FF5521F52237
:10062800E521F45FF523852124AF227E00EF6404E1
:100638007015E542640A7005754203800A0542E5B3
:100648004264047002F542EF64054E7015AF42FE35
:10065800EF6402700475420A22EF640A4E70037553
:100668004202E52264087031AF42FEEF6402701264
:10067800E547645070047D508004E54704FD8D47CC
:100688008017EF640A4E7011E54B645070047F5078
:100698008005E54B2405FF8F4BE52264097030AFD8
:1006A80042FEEF64027011E547641470047D148003
:1006B80004E54714FD8D4722EF640A4E7011E54B9F
:0F06C800641470047F148005E54B24FBFF8F4BF7
:0106D7002200
:10053400E54BFB7A00C3E5269BE5259A500BE4F5D1
:1005440027F528F529F52A8044E54824FE6012148D
:10055400601A14602524037034752701E4F528809B
:1005640007752701752801E4F529800A75270175A7
:100574002801752901E4F52A800D752701752801E4
:10058400752901752A01E4F52BF52CF52DC3E544F5
:100594009405E54394005005E4F52E8035C3E54405
:1005A4009405E5439400400FE544940AE543940020
:1005B4005005752E01801BAE45AF467C037DE812C5
:1005C40002FCED4C700CE52E70047F0180027F006C
:1005D4008F2EC3E5269BE5259A5023AC47E41202EF
:1005E40047AB4FAA4EA94DA84C1201C46010400E4F
:1005F400D201120B7D0541E5417008054022C2017C
:04060400120B7D2236
:03001B0002076475
:10076400C0E0C0F0C083C082C0D075D000C000C05B
:0D07740001C002C003C004C005C006C007DC
:100781000546E54670020545FFAE457C037DE8124E
:1007910002FC8C458D460537E5375407F53724387B
:1007A100F8E6FD742F2537F8E6FBAF3712095E74C2
:0E07B100272537F8E624FF9203AF37120A1609
:1007BF00D007D006D005D004D003D002D001D0008E
:0B07CF00D0D0D082D083D0F0D0E03238
:10001E00EC4D6011E8497017ED33EC3304600DE4DC
:10002E00FCFFFEFD22E933E8330470F80202E7120A
:10003E0002B258046009E4CC24815006285009020B
:10004E0002F12840030202EEC0E0EB4A7044B98090
:10005E0006D0E0FB0202DDEF4E701CBD8008EBFF08
:10006E00EAFEE9FD80EBE98DF0A4FEE5F002010762
:10007E00E9CDF9EAFEEBFFEF89F0A4FCE5F0CE89BD
:10008E00F0A42EFFE435F0CD89F0A42DFEE435F07A
:10009E008067EF4E7005BD80D780C3EF8BF0A4ACA8
:1000AE00F0EE8BF0A42CFCE435F0F8EF8AF0A42CE3
:1000BE00E5F038FCE433CB8DF0A42CFCE5F03BF8F6
:1000CE00EE8AF0A42CFCE5F038F8E433CF89F0A4E6
:1000DE002CFCE5F038CF3400CE89F0A42FFFE5F0EC
:1000EE003EFEE433C98DF0A42EFEE5F039CD8AF044
:1000FE00A42FFFE5F03EFEE43DFD33D0E0FB5007BC
:10010E000BBB000F0202F1EC2CFCEF33FFEE33FEC3
:06011E00ED33FD0202C9F1
:100124000202F1EC5D046005E8590470030202E781
:100134001202B2580460F6EC4860F2EC7004FDFE62
:10014400FF22C860DB2481C85009C39860025006AE
:100154000202EE9850CAF582E9294B4A7005AB8237
:100164000202DD75F0007C1A7880C3EF9BEE9AEDF5
:1001740099400DC3EF9BFFEE9AFEED99FDE842F026
:10018400DC23ACF0D0E0FFD0E0FED0E0FDAB822079
:10019400E7101BEB60BAEC2CFCEF33FFEE33FEED03
:1001A40033FD0202C9E803F830E705C0F075F0003A
:1001B400EF2FFFEE33FEED33FD40B830E7C280AAE7
:1001C40074F8CC6480CCC86480C8F58204604FC3E2
:1001D400EB9FF5F0EA9E42F0E99D42F0E89C45F081
:1001E400603C501DE5825FFFE582D313CB5BCBF40B
:1001F4002B5582FB50280ABA002409B90020088034
:100204001DE5825BFBE582D313CF5FCFF4C3132FCD
:100214005582FF50090EBE00050DBD00010CC3EB55
:100224009FF5F0EA9E42F0E99D42F0E89C45F060BB
:0902340007CC4820E701B3EC22DD
:10023D0075F020800E75F010800575F0087D007E3C
:10024D00007F003392D530D503120387EC33401075
:10025D00EF33FFEE33FEED33FDEC33FCD5F0ED2245
:0E026D00E5F0247EA2D513CC92E7CDCEFF2281
:10027B00EDD2E7CD33EC3392D524814006E4FFFE7B
:10028B00FDFC22FCE4CFCECDCC24E0501174FF80DA
:10029B00EDC3CC13CCCD13CDCE13CECF13CF047077
:0702AB00F030D5DE020387ED
:1002B200E9D2E7C933E833F892D5EDD2E7CD33EC92
:0702C20033FC5002B2D5220B
:1002C900EC30E7100FBF000C0EBE00080DBD000496
:1002D9000BEB6014A2D5EB13FCED92E7FD2274FF42
:1002E900FCFDFEFF22E480F8A2D574FF13FC7D809B
:0302F900E480EFAF
:1006E40002090EE493A3F8E493A34003F68001F215
:1006F40008DFF48029E493A3F85407240CC8C33317
:10070400C4540F4420C8834004F456800146F6DFE5
:10071400E4800B01020408102040809008B8E47EB5
:10072400019360BCA3FF543F30E509541FFEE493DA
:10073400A360010ECF54C025E060A840B8E493A3A1
:10074400FAE493A3F8E493A3C8C582C8CAC583CACC
:10075400F0A3C8C582C8CAC583CADFE9DEE780BE84
:01090D0000E9
:1002FC00BC000BBE0029EF8DF084FFADF022E4CCE6
:10030C00F875F008EF2FFFEE33FEEC33FCEE9DECAE
:10031C00984005FCEE9DFE0FD5F0E9E4CEFD22EDF4
:10032C00F8F5F0EE8420D21CFEADF075F008EF2F3E
:10033C00FFED33FD4007985006D5F0F222C398FD2F
:05034C000FD5F0EA22CC
:10035100C2D5EC30E709B2D5E4C39DFDE49CFCEEC7
:1003610030E715B2D5E4C39FFFE49EFE1202FCC341
:10037100E49DFDE49CFC80031202FC30D507C3E43C
:060381009FFFE49EFE2236
:0E038700C3E49FFFE49EFEE49DFDE49CFC2287
:00000001FF
